{
  "_format": "hh-sol-artifact-1",
  "contractName": "CSEnrollment",
  "sourceName": "contracts/CSEnrollment.sol",
  "abi": [
    {
      "inputs": [],
      "stateMutability": "nonpayable",
      "type": "constructor"
    },
    {
      "inputs": [
        {
          "internalType": "uint256",
          "name": "courseNumber",
          "type": "uint256"
        },
        {
          "internalType": "enum CSEnrollment.EnrollmentType",
          "name": "courseType",
          "type": "uint8"
        }
      ],
      "name": "add",
      "outputs": [],
      "stateMutability": "nonpayable",
      "type": "function"
    },
    {
      "inputs": [
        {
          "internalType": "uint256",
          "name": "",
          "type": "uint256"
        },
        {
          "internalType": "uint256",
          "name": "",
          "type": "uint256"
        }
      ],
      "name": "courseStudents",
      "outputs": [
        {
          "internalType": "address",
          "name": "",
          "type": "address"
        }
      ],
      "stateMutability": "view",
      "type": "function"
    },
    {
      "inputs": [
        {
          "internalType": "uint256",
          "name": "",
          "type": "uint256"
        }
      ],
      "name": "courses",
      "outputs": [
        {
          "internalType": "uint256",
          "name": "number",
          "type": "uint256"
        },
        {
          "internalType": "enum CSEnrollment.EnrollmentType",
          "name": "courseType",
          "type": "uint8"
        },
        {
          "internalType": "bool",
          "name": "gradsCanEnroll",
          "type": "bool"
        },
        {
          "internalType": "bool",
          "name": "exists",
          "type": "bool"
        },
        {
          "internalType": "uint256",
          "name": "registeredCount",
          "type": "uint256"
        }
      ],
      "stateMutability": "view",
      "type": "function"
    },
    {
      "inputs": [
        {
          "internalType": "uint256",
          "name": "courseNum",
          "type": "uint256"
        }
      ],
      "name": "getRoster",
      "outputs": [
        {
          "internalType": "address[]",
          "name": "",
          "type": "address[]"
        }
      ],
      "stateMutability": "view",
      "type": "function"
    },
    {
      "inputs": [],
      "name": "owner",
      "outputs": [
        {
          "internalType": "address",
          "name": "",
          "type": "address"
        }
      ],
      "stateMutability": "view",
      "type": "function"
    },
    {
      "inputs": [
        {
          "internalType": "uint256",
          "name": "credits",
          "type": "uint256"
        },
        {
          "internalType": "enum CSEnrollment.EnrollmentType",
          "name": "studentType",
          "type": "uint8"
        },
        {
          "internalType": "uint256",
          "name": "courseNum",
          "type": "uint256"
        }
      ],
      "name": "register",
      "outputs": [],
      "stateMutability": "nonpayable",
      "type": "function"
    },
    {
      "inputs": [
        {
          "internalType": "uint256",
          "name": "",
          "type": "uint256"
        }
      ],
      "name": "registered",
      "outputs": [
        {
          "internalType": "address",
          "name": "id",
          "type": "address"
        },
        {
          "internalType": "uint256",
          "name": "courseNum",
          "type": "uint256"
        },
        {
          "internalType": "uint256",
          "name": "timestamp",
          "type": "uint256"
        },
        {
          "internalType": "uint256",
          "name": "credits",
          "type": "uint256"
        },
        {
          "internalType": "bool",
          "name": "exists",
          "type": "bool"
        }
      ],
      "stateMutability": "view",
      "type": "function"
    },
    {
      "inputs": [
        {
          "internalType": "address",
          "name": "",
          "type": "address"
        }
      ],
      "name": "students",
      "outputs": [
        {
          "internalType": "address",
          "name": "id",
          "type": "address"
        },
        {
          "internalType": "uint256",
          "name": "credits",
          "type": "uint256"
        },
        {
          "internalType": "bool",
          "name": "exists",
          "type": "bool"
        },
        {
          "internalType": "enum CSEnrollment.EnrollmentType",
          "name": "courseType",
          "type": "uint8"
        }
      ],
      "stateMutability": "view",
      "type": "function"
    }
  ],
  "bytecode": "0x60806040523480156200001157600080fd5b50336000806101000a81548173ffffffffffffffffffffffffffffffffffffffff021916908373ffffffffffffffffffffffffffffffffffffffff1602179055506040518060a0016040528061029e81526020016001808111156200007b576200007a620003ea565b5b815260200160011515815260200160011515815260200160008152506002600061029e81526020019081526020016000206000820151816000015560208201518160010160006101000a81548160ff02191690836001811115620000e457620000e3620003ea565b5b021790555060408201518160010160016101000a81548160ff02191690831515021790555060608201518160010160026101000a81548160ff021916908315150217905550608082015181600201559050506040518060a0016040528061026981526020016001808111156200015f576200015e620003ea565b5b815260200160011515815260200160011515815260200160008152506002600061026981526020019081526020016000206000820151816000015560208201518160010160006101000a81548160ff02191690836001811115620001c857620001c7620003ea565b5b021790555060408201518160010160016101000a81548160ff02191690831515021790555060608201518160010160026101000a81548160ff021916908315150217905550608082015181600201559050506040518060a001604052806101e4815260200160006001811115620002445762000243620003ea565b5b81526020016001151581526020016001151581526020016000815250600260006101e481526020019081526020016000206000820151816000015560208201518160010160006101000a81548160ff02191690836001811115620002ad57620002ac620003ea565b5b021790555060408201518160010160016101000a81548160ff02191690831515021790555060608201518160010160026101000a81548160ff021916908315150217905550608082015181600201559050506040518060a001604052806101af815260200160006001811115620003295762000328620003ea565b5b81526020016000151581526020016001151581526020016000815250600260006101af81526020019081526020016000206000820151816000015560208201518160010160006101000a81548160ff02191690836001811115620003925762000391620003ea565b5b021790555060408201518160010160016101000a81548160ff02191690831515021790555060608201518160010160026101000a81548160ff0219169083151502179055506080820151816002015590505062000419565b7f4e487b7100000000000000000000000000000000000000000000000000000000600052602160045260246000fd5b61145880620004296000396000f3fe608060405234801561001057600080fd5b50600436106100885760003560e01c806396f979d21161005b57806396f979d214610113578063a6c807a914610147578063d576d7851461017a578063e6cf1346146101aa57610088565b8063300a3bbf1461008d5780635f39068a146100a95780636e274a34146100c55780638da5cb5b146100f5575b600080fd5b6100a760048036038101906100a29190610b81565b6101de565b005b6100c360048036038101906100be9190610bd4565b610714565b005b6100df60048036038101906100da9190610c14565b6108e4565b6040516100ec9190610c95565b60405180910390f35b6100fd610932565b60405161010a9190610c95565b60405180910390f35b61012d60048036038101906101289190610cb0565b610956565b60405161013e959493929190610d7e565b60405180910390f35b610161600480360381019061015c9190610dfd565b6109b3565b6040516101719493929190610e2a565b60405180910390f35b610194600480360381019061018f9190610cb0565b610a1d565b6040516101a19190610f2d565b60405180910390f35b6101c460048036038101906101bf9190610cb0565b610abe565b6040516101d5959493929190610f4f565b60405180910390f35b60001515600160003373ffffffffffffffffffffffffffffffffffffffff1673ffffffffffffffffffffffffffffffffffffffff16815260200190815260200160002060020160009054906101000a900460ff16151514610274576040517f08c379a000000000000000000000000000000000000000000000000000000000815260040161026b90610fff565b60405180910390fd5b601e6004600083815260200190815260200160002080549050106102cd576040517f08c379a00000000000000000000000000000000000000000000000000000000081526004016102c49061106b565b60405180910390fd5b600060018111156102e1576102e0610cec565b5b8260018111156102f4576102f3610cec565b5b0361034e576101e481148061030a57506101af81145b610349576040517f08c379a0000000000000000000000000000000000000000000000000000000008152600401610340906110fd565b60405180910390fd5b610402565b60018081111561036157610360610cec565b5b82600181111561037457610373610cec565b5b0361040157601483116103bc576040517f08c379a00000000000000000000000000000000000000000000000000000000081526004016103b39061118f565b60405180910390fd5b6101af8103610400576040517f08c379a00000000000000000000000000000000000000000000000000000000081526004016103f790611221565b60405180910390fd5b5b5b6002600082815260200190815260200160002060010160029054906101000a900460ff16610465576040517f08c379a000000000000000000000000000000000000000000000000000000000815260040161045c9061128d565b60405180910390fd5b60405180608001604052803373ffffffffffffffffffffffffffffffffffffffff1681526020018481526020016001151581526020018360018111156104ae576104ad610cec565b5b815250600160003373ffffffffffffffffffffffffffffffffffffffff1673ffffffffffffffffffffffffffffffffffffffff16815260200190815260200160002060008201518160000160006101000a81548173ffffffffffffffffffffffffffffffffffffffff021916908373ffffffffffffffffffffffffffffffffffffffff1602179055506020820151816001015560408201518160020160006101000a81548160ff02191690831515021790555060608201518160020160016101000a81548160ff0219169083600181111561058c5761058b610cec565b5b02179055509050506040518060a001604052803373ffffffffffffffffffffffffffffffffffffffff168152602001828152602001428152602001848152602001600115158152506003600083815260200190815260200160002060008201518160000160006101000a81548173ffffffffffffffffffffffffffffffffffffffff021916908373ffffffffffffffffffffffffffffffffffffffff16021790555060208201518160010155604082015181600201556060820151816003015560808201518160040160006101000a81548160ff021916908315150217905550905050600260008281526020019081526020016000206002016000815480929190610696906112dc565b919050555060046000828152602001908152602001600020339080600181540180825580915050600190039060005260206000200160009091909190916101000a81548173ffffffffffffffffffffffffffffffffffffffff021916908373ffffffffffffffffffffffffffffffffffffffff160217905550505050565b60008054906101000a900473ffffffffffffffffffffffffffffffffffffffff1673ffffffffffffffffffffffffffffffffffffffff163373ffffffffffffffffffffffffffffffffffffffff16146107a2576040517f08c379a000000000000000000000000000000000000000000000000000000000815260040161079990611396565b60405180910390fd5b6002600083815260200190815260200160002060010160029054906101000a900460ff1615610806576040517f08c379a00000000000000000000000000000000000000000000000000000000081526004016107fd90611402565b60405180910390fd5b6040518060a0016040528083815260200182600181111561082a57610829610cec565b5b81526020016001151581526020016001151581526020016000815250600260008481526020019081526020016000206000820151816000015560208201518160010160006101000a81548160ff0219169083600181111561088e5761088d610cec565b5b021790555060408201518160010160016101000a81548160ff02191690831515021790555060608201518160010160026101000a81548160ff021916908315150217905550608082015181600201559050505050565b6004602052816000526040600020818154811061090057600080fd5b906000526020600020016000915091509054906101000a900473ffffffffffffffffffffffffffffffffffffffff1681565b60008054906101000a900473ffffffffffffffffffffffffffffffffffffffff1681565b60026020528060005260406000206000915090508060000154908060010160009054906101000a900460ff16908060010160019054906101000a900460ff16908060010160029054906101000a900460ff16908060020154905085565b60016020528060005260406000206000915090508060000160009054906101000a900473ffffffffffffffffffffffffffffffffffffffff16908060010154908060020160009054906101000a900460ff16908060020160019054906101000a900460ff16905084565b606060046000838152602001908152602001600020805480602002602001604051908101604052809291908181526020018280548015610ab257602002820191906000526020600020905b8160009054906101000a900473ffffffffffffffffffffffffffffffffffffffff1673ffffffffffffffffffffffffffffffffffffffff1681526020019060010190808311610a68575b50505050509050919050565b60036020528060005260406000206000915090508060000160009054906101000a900473ffffffffffffffffffffffffffffffffffffffff16908060010154908060020154908060030154908060040160009054906101000a900460ff16905085565b600080fd5b6000819050919050565b610b3981610b26565b8114610b4457600080fd5b50565b600081359050610b5681610b30565b92915050565b60028110610b6957600080fd5b50565b600081359050610b7b81610b5c565b92915050565b600080600060608486031215610b9a57610b99610b21565b5b6000610ba886828701610b47565b9350506020610bb986828701610b6c565b9250506040610bca86828701610b47565b9150509250925092565b60008060408385031215610beb57610bea610b21565b5b6000610bf985828601610b47565b9250506020610c0a85828601610b6c565b9150509250929050565b60008060408385031215610c2b57610c2a610b21565b5b6000610c3985828601610b47565b9250506020610c4a85828601610b47565b9150509250929050565b600073ffffffffffffffffffffffffffffffffffffffff82169050919050565b6000610c7f82610c54565b9050919050565b610c8f81610c74565b82525050565b6000602082019050610caa6000830184610c86565b92915050565b600060208284031215610cc657610cc5610b21565b5b6000610cd484828501610b47565b91505092915050565b610ce681610b26565b82525050565b7f4e487b7100000000000000000000000000000000000000000000000000000000600052602160045260246000fd5b60028110610d2c57610d2b610cec565b5b50565b6000819050610d3d82610d1b565b919050565b6000610d4d82610d2f565b9050919050565b610d5d81610d42565b82525050565b60008115159050919050565b610d7881610d63565b82525050565b600060a082019050610d936000830188610cdd565b610da06020830187610d54565b610dad6040830186610d6f565b610dba6060830185610d6f565b610dc76080830184610cdd565b9695505050505050565b610dda81610c74565b8114610de557600080fd5b50565b600081359050610df781610dd1565b92915050565b600060208284031215610e1357610e12610b21565b5b6000610e2184828501610de8565b91505092915050565b6000608082019050610e3f6000830187610c86565b610e4c6020830186610cdd565b610e596040830185610d6f565b610e666060830184610d54565b95945050505050565b600081519050919050565b600082825260208201905092915050565b6000819050602082019050919050565b610ea481610c74565b82525050565b6000610eb68383610e9b565b60208301905092915050565b6000602082019050919050565b6000610eda82610e6f565b610ee48185610e7a565b9350610eef83610e8b565b8060005b83811015610f20578151610f078882610eaa565b9750610f1283610ec2565b925050600181019050610ef3565b5085935050505092915050565b60006020820190508181036000830152610f478184610ecf565b905092915050565b600060a082019050610f646000830188610c86565b610f716020830187610cdd565b610f7e6040830186610cdd565b610f8b6060830185610cdd565b610f986080830184610d6f565b9695505050505050565b600082825260208201905092915050565b7f53747564656e7420697320616c72656164792072656769737465726564000000600082015250565b6000610fe9601d83610fa2565b9150610ff482610fb3565b602082019050919050565b6000602082019050818103600083015261101881610fdc565b9050919050565b7f436f7572736520697320616c72656164792066756c6c00000000000000000000600082015250565b6000611055601683610fa2565b91506110608261101f565b602082019050919050565b6000602082019050818103600083015261108481611048565b9050919050565b7f556e6465726772616475617465732063616e206f6e6c7920726567697374657260008201527f20666f7220636f757273657320343834206f7220343331000000000000000000602082015250565b60006110e7603783610fa2565b91506110f28261108b565b604082019050919050565b60006020820190508181036000830152611116816110da565b9050919050565b7f477261647561746573206d7573742068617665206f766572203230206372656460008201527f69747320746f2072656769737465720000000000000000000000000000000000602082015250565b6000611179602f83610fa2565b91506111848261111d565b604082019050919050565b600060208201905081810360008301526111a88161116c565b9050919050565b7f47726164756174657320617265206e6f7420616c6c6f77656420746f2072656760008201527f697374657220666f7220636f7572736520343331000000000000000000000000602082015250565b600061120b603483610fa2565b9150611216826111af565b604082019050919050565b6000602082019050818103600083015261123a816111fe565b9050919050565b7f496e76616c696420636f75727365206e756d6265720000000000000000000000600082015250565b6000611277601583610fa2565b915061128282611241565b602082019050919050565b600060208201905081810360008301526112a68161126a565b9050919050565b7f4e487b7100000000000000000000000000000000000000000000000000000000600052601160045260246000fd5b60006112e782610b26565b91507fffffffffffffffffffffffffffffffffffffffffffffffffffffffffffffffff8203611319576113186112ad565b5b600182019050919050565b7f4f6e6c7920746865206f776e65722063616e2063616c6c20746869732066756e60008201527f6374696f6e000000000000000000000000000000000000000000000000000000602082015250565b6000611380602583610fa2565b915061138b82611324565b604082019050919050565b600060208201905081810360008301526113af81611373565b9050919050565b7f436f7572736520616c7265616479206578697374730000000000000000000000600082015250565b60006113ec601583610fa2565b91506113f7826113b6565b602082019050919050565b6000602082019050818103600083015261141b816113df565b905091905056fea264697066735822122055e4bea9e94a8f9f8cffede2f2c9faf7209bfd90026246e5260f02f507e2b33a64736f6c63430008120033",
  "linkReferences": {},
  "deployedLinkReferences": {}
}